{
    "hex": "0200000001fae4baf2f24506edc646a64fd3d082c34c80953ca227f4674acfac0fb9af565700000000fd070100473044022032669ab2301bc2811c23b40d636c4ff85777fd935c5ea8a9d857601144d8a69c022015fcb44eafb59810cc26fcc6fe1d2936d8c2ca5ef5e3707c8b02872e28cb1aec01483045022100e48f349246835748c9d09d270908793210ab94a046f9ea9642d4bdc20153133d0220066e16b4556c43d7aa823f80a74b5881a7c1d3aba5a97e437f02994b83b1a5c601004c7263021200b1752102695c71925215f8a23d9880fc52811c77aac00a259876046c8ad92731d8c2c172ad6752682102695c71925215f8a23d9880fc52811c77aac00a259876046c8ad92731d8c2c17221033018856019108336a67b29f4cf9612b9b83953a92a5ef8472b6822f78d85047752aeffffffff02006fe0d6010000001976a914f155d92633f0ba198d32ed95b65b4e0bcfd7ef1d88ac00943577000000001976a914540246395884a071dee9840ea069124970ab6b2388ac00000000",
    "txid": "9389bea4d6c3c1425f0f0c0e7eb92a6da6dfc5ae463b7c4a137ff4053ffc78b4",
    "hash": "9389bea4d6c3c1425f0f0c0e7eb92a6da6dfc5ae463b7c4a137ff4053ffc78b4",
    "size": 384,
    "vsize": 384,
    "version": 2,
    "locktime": 0,
    "vin": [
      {
        "txid": "5756afb90faccf4a67f427a23c95804cc382d0d34fa646c6ed0645f2f2bae4fa",
        "vout": 0,
        "scriptSig": {
          "asm": "0 3044022032669ab2301bc2811c23b40d636c4ff85777fd935c5ea8a9d857601144d8a69c022015fcb44eafb59810cc26fcc6fe1d2936d8c2ca5ef5e3707c8b02872e28cb1aec[ALL] 3045022100e48f349246835748c9d09d270908793210ab94a046f9ea9642d4bdc20153133d0220066e16b4556c43d7aa823f80a74b5881a7c1d3aba5a97e437f02994b83b1a5c6[ALL] 0 63021200b1752102695c71925215f8a23d9880fc52811c77aac00a259876046c8ad92731d8c2c172ad6752682102695c71925215f8a23d9880fc52811c77aac00a259876046c8ad92731d8c2c17221033018856019108336a67b29f4cf9612b9b83953a92a5ef8472b6822f78d85047752ae",
          "hex": "00473044022032669ab2301bc2811c23b40d636c4ff85777fd935c5ea8a9d857601144d8a69c022015fcb44eafb59810cc26fcc6fe1d2936d8c2ca5ef5e3707c8b02872e28cb1aec01483045022100e48f349246835748c9d09d270908793210ab94a046f9ea9642d4bdc20153133d0220066e16b4556c43d7aa823f80a74b5881a7c1d3aba5a97e437f02994b83b1a5c601004c7263021200b1752102695c71925215f8a23d9880fc52811c77aac00a259876046c8ad92731d8c2c172ad6752682102695c71925215f8a23d9880fc52811c77aac00a259876046c8ad92731d8c2c17221033018856019108336a67b29f4cf9612b9b83953a92a5ef8472b6822f78d85047752ae"
        },
        "sequence": 4294967295
      }
    ],
    "vout": [
      {
        "value": 79.00000000,
        "n": 0,
        "scriptPubKey": {
          "asm": "OP_DUP OP_HASH160 f155d92633f0ba198d32ed95b65b4e0bcfd7ef1d OP_EQUALVERIFY OP_CHECKSIG",
          "hex": "76a914f155d92633f0ba198d32ed95b65b4e0bcfd7ef1d88ac",
          "reqSigs": 1,
          "type": "pubkeyhash",
          "addresses": [
            "n3X1z8E31SdA1evyWKBb7LgdG23ueuhK3W"
          ]
        }
      },
      {
        "value": 20.00000000,
        "n": 1,
        "scriptPubKey": {
          "asm": "OP_DUP OP_HASH160 540246395884a071dee9840ea069124970ab6b23 OP_EQUALVERIFY OP_CHECKSIG",
          "hex": "76a914540246395884a071dee9840ea069124970ab6b2388ac",
          "reqSigs": 1,
          "type": "pubkeyhash",
          "addresses": [
            "moB9nBxgCrzijHtoRUEr4aSEBrJYtraTTy"
          ]
        }
      }
    ],
    "blockhash": "f3989c82d1ea278945eda0587e9ba1e8d569ea2ce84821f03952c0d9502cf258",
    "confirmations": 1451,
    "time": 1638948191,
    "blocktime": 1638948191
  }